{"contracts/KYCVerification.sol":{"KYCVerification":{"abi":[{"anonymous":false,"inputs":[{"indexed":true,"internalType":"address","name":"previousOwner","type":"address"},{"indexed":true,"internalType":"address","name":"newOwner","type":"address"}],"name":"OwnershipTransferred","type":"event"},{"inputs":[{"internalType":"bytes","name":"dataframe","type":"bytes"},{"internalType":"uint8","name":"v","type":"uint8"},{"internalType":"bytes32","name":"r","type":"bytes32"},{"internalType":"bytes32","name":"s","type":"bytes32"},{"internalType":"string","name":"kycHash","type":"string"},{"internalType":"address","name":"userAddress","type":"address"}],"name":"approveKYC","outputs":[],"stateMutability":"nonpayable","type":"function"},{"inputs":[],"name":"owner","outputs":[{"internalType":"address","name":"","type":"address"}],"stateMutability":"view","type":"function"},{"inputs":[],"name":"renounceOwnership","outputs":[],"stateMutability":"nonpayable","type":"function"},{"inputs":[{"internalType":"address","name":"newOwner","type":"address"}],"name":"transferOwnership","outputs":[],"stateMutability":"nonpayable","type":"function"}],"evm":{"bytecode":{"linkReferences":{},"object":"608060405234801561001057600080fd5b5061002d61002261003260201b60201c565b61003a60201b60201c565b6100fe565b600033905090565b60008060009054906101000a900473ffffffffffffffffffffffffffffffffffffffff169050816000806101000a81548173ffffffffffffffffffffffffffffffffffffffff021916908373ffffffffffffffffffffffffffffffffffffffff1602179055508173ffffffffffffffffffffffffffffffffffffffff168173ffffffffffffffffffffffffffffffffffffffff167f8be0079c531659141344cd1fd0a4f28419497f9722a3daafe3b4186f6b6457e060405160405180910390a35050565b610e338061010d6000396000f3fe608060405234801561001057600080fd5b506004361061004c5760003560e01c8063715018a6146100515780638da5cb5b1461005b578063ae474b5314610079578063f2fde38b14610095575b600080fd5b6100596100b1565b005b6100636100c5565b60405161007091906104d9565b60405180910390f35b610093600480360381019061008e919061078a565b6100ee565b005b6100af60048036038101906100aa919061084f565b61022b565b005b6100b96102ae565b6100c3600061032c565b565b60008060009054906101000a900473ffffffffffffffffffffffffffffffffffffffff16905090565b60006100fb8760006103f0565b905060008780519060200120905060006001828989896040516000815260200160405260405161012e949392919061089a565b6020604051602081039080840390855afa158015610150573d6000803e3d6000fd5b5050506020604051035190506101646100c5565b73ffffffffffffffffffffffffffffffffffffffff168173ffffffffffffffffffffffffffffffffffffffff161461019b57600080fd5b8273ffffffffffffffffffffffffffffffffffffffff168473ffffffffffffffffffffffffffffffffffffffff16146101d357600080fd5b84600160008673ffffffffffffffffffffffffffffffffffffffff1673ffffffffffffffffffffffffffffffffffffffff168152602001908152602001600020908161021f9190610b00565b50505050505050505050565b6102336102ae565b600073ffffffffffffffffffffffffffffffffffffffff168173ffffffffffffffffffffffffffffffffffffffff16036102a2576040517f08c379a000000000000000000000000000000000000000000000000000000000815260040161029990610c55565b60405180910390fd5b6102ab8161032c565b50565b6102b6610490565b73ffffffffffffffffffffffffffffffffffffffff166102d46100c5565b73ffffffffffffffffffffffffffffffffffffffff161461032a576040517f08c379a000000000000000000000000000000000000000000000000000000000815260040161032190610cc1565b60405180910390fd5b565b60008060009054906101000a900473ffffffffffffffffffffffffffffffffffffffff169050816000806101000a81548173ffffffffffffffffffffffffffffffffffffffff021916908373ffffffffffffffffffffffffffffffffffffffff1602179055508173ffffffffffffffffffffffffffffffffffffffff168173ffffffffffffffffffffffffffffffffffffffff167f8be0079c531659141344cd1fd0a4f28419497f9722a3daafe3b4186f6b6457e060405160405180910390a35050565b60008060005b6014811015610482576008600c8261040e9190610d10565b6104189190610d44565b60ff60f81b86838761042a9190610d10565b8151811061043b5761043a610d86565b5b602001015160f81c60f81b167effffffffffffffffffffffffffffffffffffffffffffffffffffffffffffff1916901c82179150808061047a90610db5565b9150506103f6565b508060001c91505092915050565b600033905090565b600073ffffffffffffffffffffffffffffffffffffffff82169050919050565b60006104c382610498565b9050919050565b6104d3816104b8565b82525050565b60006020820190506104ee60008301846104ca565b92915050565b6000604051905090565b600080fd5b600080fd5b600080fd5b600080fd5b6000601f19601f8301169050919050565b7f4e487b7100000000000000000000000000000000000000000000000000000000600052604160045260246000fd5b61055b82610512565b810181811067ffffffffffffffff8211171561057a57610579610523565b5b80604052505050565b600061058d6104f4565b90506105998282610552565b919050565b600067ffffffffffffffff8211156105b9576105b8610523565b5b6105c282610512565b9050602081019050919050565b82818337600083830152505050565b60006105f16105ec8461059e565b610583565b90508281526020810184848401111561060d5761060c61050d565b5b6106188482856105cf565b509392505050565b600082601f83011261063557610634610508565b5b81356106458482602086016105de565b91505092915050565b600060ff82169050919050565b6106648161064e565b811461066f57600080fd5b50565b6000813590506106818161065b565b92915050565b6000819050919050565b61069a81610687565b81146106a557600080fd5b50565b6000813590506106b781610691565b92915050565b600067ffffffffffffffff8211156106d8576106d7610523565b5b6106e182610512565b9050602081019050919050565b60006107016106fc846106bd565b610583565b90508281526020810184848401111561071d5761071c61050d565b5b6107288482856105cf565b509392505050565b600082601f83011261074557610744610508565b5b81356107558482602086016106ee565b91505092915050565b610767816104b8565b811461077257600080fd5b50565b6000813590506107848161075e565b92915050565b60008060008060008060c087890312156107a7576107a66104fe565b5b600087013567ffffffffffffffff8111156107c5576107c4610503565b5b6107d189828a01610620565b96505060206107e289828a01610672565b95505060406107f389828a016106a8565b945050606061080489828a016106a8565b935050608087013567ffffffffffffffff81111561082557610824610503565b5b61083189828a01610730565b92505060a061084289828a01610775565b9150509295509295509295565b600060208284031215610865576108646104fe565b5b600061087384828501610775565b91505092915050565b61088581610687565b82525050565b6108948161064e565b82525050565b60006080820190506108af600083018761087c565b6108bc602083018661088b565b6108c9604083018561087c565b6108d6606083018461087c565b95945050505050565b600081519050919050565b7f4e487b7100000000000000000000000000000000000000000000000000000000600052602260045260246000fd5b6000600282049050600182168061093157607f821691505b602082108103610944576109436108ea565b5b50919050565b60008190508160005260206000209050919050565b60006020601f8301049050919050565b600082821b905092915050565b6000600883026109ac7fffffffffffffffffffffffffffffffffffffffffffffffffffffffffffffffff8261096f565b6109b6868361096f565b95508019841693508086168417925050509392505050565b6000819050919050565b6000819050919050565b60006109fd6109f86109f3846109ce565b6109d8565b6109ce565b9050919050565b6000819050919050565b610a17836109e2565b610a2b610a2382610a04565b84845461097c565b825550505050565b600090565b610a40610a33565b610a4b818484610a0e565b505050565b5b81811015610a6f57610a64600082610a38565b600181019050610a51565b5050565b601f821115610ab457610a858161094a565b610a8e8461095f565b81016020851015610a9d578190505b610ab1610aa98561095f565b830182610a50565b50505b505050565b600082821c905092915050565b6000610ad760001984600802610ab9565b1980831691505092915050565b6000610af08383610ac6565b9150826002028217905092915050565b610b09826108df565b67ffffffffffffffff811115610b2257610b21610523565b5b610b2c8254610919565b610b37828285610a73565b600060209050601f831160018114610b6a5760008415610b58578287015190505b610b628582610ae4565b865550610bca565b601f198416610b788661094a565b60005b82811015610ba057848901518255600182019150602085019450602081019050610b7b565b86831015610bbd5784890151610bb9601f891682610ac6565b8355505b6001600288020188555050505b505050505050565b600082825260208201905092915050565b7f4f776e61626c653a206e6577206f776e657220697320746865207a65726f206160008201527f6464726573730000000000000000000000000000000000000000000000000000602082015250565b6000610c3f602683610bd2565b9150610c4a82610be3565b604082019050919050565b60006020820190508181036000830152610c6e81610c32565b9050919050565b7f4f776e61626c653a2063616c6c6572206973206e6f7420746865206f776e6572600082015250565b6000610cab602083610bd2565b9150610cb682610c75565b602082019050919050565b60006020820190508181036000830152610cda81610c9e565b9050919050565b7f4e487b7100000000000000000000000000000000000000000000000000000000600052601160045260246000fd5b6000610d1b826109ce565b9150610d26836109ce565b9250828201905080821115610d3e57610d3d610ce1565b5b92915050565b6000610d4f826109ce565b9150610d5a836109ce565b9250828202610d68816109ce565b91508282048414831517610d7f57610d7e610ce1565b5b5092915050565b7f4e487b7100000000000000000000000000000000000000000000000000000000600052603260045260246000fd5b6000610dc0826109ce565b91507fffffffffffffffffffffffffffffffffffffffffffffffffffffffffffffffff8203610df257610df1610ce1565b5b60018201905091905056fea264697066735822122059e5439cfa72869f1f65fd59727704b3c68de9d9f3b2f72bd3edb8ed007ddd0364736f6c63430008110033","opcodes":"PUSH1 0x80 PUSH1 0x40 MSTORE CALLVALUE DUP1 ISZERO PUSH2 0x10 JUMPI PUSH1 0x0 DUP1 REVERT JUMPDEST POP PUSH2 0x2D PUSH2 0x22 PUSH2 0x32 PUSH1 0x20 SHL PUSH1 0x20 SHR JUMP JUMPDEST PUSH2 0x3A PUSH1 0x20 SHL PUSH1 0x20 SHR JUMP JUMPDEST PUSH2 0xFE JUMP JUMPDEST PUSH1 0x0 CALLER SWAP1 POP SWAP1 JUMP JUMPDEST PUSH1 0x0 DUP1 PUSH1 0x0 SWAP1 SLOAD SWAP1 PUSH2 0x100 EXP SWAP1 DIV PUSH20 0xFFFFFFFFFFFFFFFFFFFFFFFFFFFFFFFFFFFFFFFF AND SWAP1 POP DUP2 PUSH1 0x0 DUP1 PUSH2 0x100 EXP DUP2 SLOAD DUP2 PUSH20 0xFFFFFFFFFFFFFFFFFFFFFFFFFFFFFFFFFFFFFFFF MUL NOT AND SWAP1 DUP4 PUSH20 0xFFFFFFFFFFFFFFFFFFFFFFFFFFFFFFFFFFFFFFFF AND MUL OR SWAP1 SSTORE POP DUP2 PUSH20 0xFFFFFFFFFFFFFFFFFFFFFFFFFFFFFFFFFFFFFFFF AND DUP2 PUSH20 0xFFFFFFFFFFFFFFFFFFFFFFFFFFFFFFFFFFFFFFFF AND PUSH32 0x8BE0079C531659141344CD1FD0A4F28419497F9722A3DAAFE3B4186F6B6457E0 PUSH1 0x40 MLOAD PUSH1 0x40 MLOAD DUP1 SWAP2 SUB SWAP1 LOG3 POP POP JUMP JUMPDEST PUSH2 0xE33 DUP1 PUSH2 0x10D PUSH1 0x0 CODECOPY PUSH1 0x0 RETURN INVALID PUSH1 0x80 PUSH1 0x40 MSTORE CALLVALUE DUP1 ISZERO PUSH2 0x10 JUMPI PUSH1 0x0 DUP1 REVERT JUMPDEST POP PUSH1 0x4 CALLDATASIZE LT PUSH2 0x4C JUMPI PUSH1 0x0 CALLDATALOAD PUSH1 0xE0 SHR DUP1 PUSH4 0x715018A6 EQ PUSH2 0x51 JUMPI DUP1 PUSH4 0x8DA5CB5B EQ PUSH2 0x5B JUMPI DUP1 PUSH4 0xAE474B53 EQ PUSH2 0x79 JUMPI DUP1 PUSH4 0xF2FDE38B EQ PUSH2 0x95 JUMPI JUMPDEST PUSH1 0x0 DUP1 REVERT JUMPDEST PUSH2 0x59 PUSH2 0xB1 JUMP JUMPDEST STOP JUMPDEST PUSH2 0x63 PUSH2 0xC5 JUMP JUMPDEST PUSH1 0x40 MLOAD PUSH2 0x70 SWAP2 SWAP1 PUSH2 0x4D9 JUMP JUMPDEST PUSH1 0x40 MLOAD DUP1 SWAP2 SUB SWAP1 RETURN JUMPDEST PUSH2 0x93 PUSH1 0x4 DUP1 CALLDATASIZE SUB DUP2 ADD SWAP1 PUSH2 0x8E SWAP2 SWAP1 PUSH2 0x78A JUMP JUMPDEST PUSH2 0xEE JUMP JUMPDEST STOP JUMPDEST PUSH2 0xAF PUSH1 0x4 DUP1 CALLDATASIZE SUB DUP2 ADD SWAP1 PUSH2 0xAA SWAP2 SWAP1 PUSH2 0x84F JUMP JUMPDEST PUSH2 0x22B JUMP JUMPDEST STOP JUMPDEST PUSH2 0xB9 PUSH2 0x2AE JUMP JUMPDEST PUSH2 0xC3 PUSH1 0x0 PUSH2 0x32C JUMP JUMPDEST JUMP JUMPDEST PUSH1 0x0 DUP1 PUSH1 0x0 SWAP1 SLOAD SWAP1 PUSH2 0x100 EXP SWAP1 DIV PUSH20 0xFFFFFFFFFFFFFFFFFFFFFFFFFFFFFFFFFFFFFFFF AND SWAP1 POP SWAP1 JUMP JUMPDEST PUSH1 0x0 PUSH2 0xFB DUP8 PUSH1 0x0 PUSH2 0x3F0 JUMP JUMPDEST SWAP1 POP PUSH1 0x0 DUP8 DUP1 MLOAD SWAP1 PUSH1 0x20 ADD KECCAK256 SWAP1 POP PUSH1 0x0 PUSH1 0x1 DUP3 DUP10 DUP10 DUP10 PUSH1 0x40 MLOAD PUSH1 0x0 DUP2 MSTORE PUSH1 0x20 ADD PUSH1 0x40 MSTORE PUSH1 0x40 MLOAD PUSH2 0x12E SWAP5 SWAP4 SWAP3 SWAP2 SWAP1 PUSH2 0x89A JUMP JUMPDEST PUSH1 0x20 PUSH1 0x40 MLOAD PUSH1 0x20 DUP2 SUB SWAP1 DUP1 DUP5 SUB SWAP1 DUP6 GAS STATICCALL ISZERO DUP1 ISZERO PUSH2 0x150 JUMPI RETURNDATASIZE PUSH1 0x0 DUP1 RETURNDATACOPY RETURNDATASIZE PUSH1 0x0 REVERT JUMPDEST POP POP POP PUSH1 0x20 PUSH1 0x40 MLOAD SUB MLOAD SWAP1 POP PUSH2 0x164 PUSH2 0xC5 JUMP JUMPDEST PUSH20 0xFFFFFFFFFFFFFFFFFFFFFFFFFFFFFFFFFFFFFFFF AND DUP2 PUSH20 0xFFFFFFFFFFFFFFFFFFFFFFFFFFFFFFFFFFFFFFFF AND EQ PUSH2 0x19B JUMPI PUSH1 0x0 DUP1 REVERT JUMPDEST DUP3 PUSH20 0xFFFFFFFFFFFFFFFFFFFFFFFFFFFFFFFFFFFFFFFF AND DUP5 PUSH20 0xFFFFFFFFFFFFFFFFFFFFFFFFFFFFFFFFFFFFFFFF AND EQ PUSH2 0x1D3 JUMPI PUSH1 0x0 DUP1 REVERT JUMPDEST DUP5 PUSH1 0x1 PUSH1 0x0 DUP7 PUSH20 0xFFFFFFFFFFFFFFFFFFFFFFFFFFFFFFFFFFFFFFFF AND PUSH20 0xFFFFFFFFFFFFFFFFFFFFFFFFFFFFFFFFFFFFFFFF AND DUP2 MSTORE PUSH1 0x20 ADD SWAP1 DUP2 MSTORE PUSH1 0x20 ADD PUSH1 0x0 KECCAK256 SWAP1 DUP2 PUSH2 0x21F SWAP2 SWAP1 PUSH2 0xB00 JUMP JUMPDEST POP POP POP POP POP POP POP POP POP POP JUMP JUMPDEST PUSH2 0x233 PUSH2 0x2AE JUMP JUMPDEST PUSH1 0x0 PUSH20 0xFFFFFFFFFFFFFFFFFFFFFFFFFFFFFFFFFFFFFFFF AND DUP2 PUSH20 0xFFFFFFFFFFFFFFFFFFFFFFFFFFFFFFFFFFFFFFFF AND SUB PUSH2 0x2A2 JUMPI PUSH1 0x40 MLOAD PUSH32 0x8C379A000000000000000000000000000000000000000000000000000000000 DUP2 MSTORE PUSH1 0x4 ADD PUSH2 0x299 SWAP1 PUSH2 0xC55 JUMP JUMPDEST PUSH1 0x40 MLOAD DUP1 SWAP2 SUB SWAP1 REVERT JUMPDEST PUSH2 0x2AB DUP2 PUSH2 0x32C JUMP JUMPDEST POP JUMP JUMPDEST PUSH2 0x2B6 PUSH2 0x490 JUMP JUMPDEST PUSH20 0xFFFFFFFFFFFFFFFFFFFFFFFFFFFFFFFFFFFFFFFF AND PUSH2 0x2D4 PUSH2 0xC5 JUMP JUMPDEST PUSH20 0xFFFFFFFFFFFFFFFFFFFFFFFFFFFFFFFFFFFFFFFF AND EQ PUSH2 0x32A JUMPI PUSH1 0x40 MLOAD PUSH32 0x8C379A000000000000000000000000000000000000000000000000000000000 DUP2 MSTORE PUSH1 0x4 ADD PUSH2 0x321 SWAP1 PUSH2 0xCC1 JUMP JUMPDEST PUSH1 0x40 MLOAD DUP1 SWAP2 SUB SWAP1 REVERT JUMPDEST JUMP JUMPDEST PUSH1 0x0 DUP1 PUSH1 0x0 SWAP1 SLOAD SWAP1 PUSH2 0x100 EXP SWAP1 DIV PUSH20 0xFFFFFFFFFFFFFFFFFFFFFFFFFFFFFFFFFFFFFFFF AND SWAP1 POP DUP2 PUSH1 0x0 DUP1 PUSH2 0x100 EXP DUP2 SLOAD DUP2 PUSH20 0xFFFFFFFFFFFFFFFFFFFFFFFFFFFFFFFFFFFFFFFF MUL NOT AND SWAP1 DUP4 PUSH20 0xFFFFFFFFFFFFFFFFFFFFFFFFFFFFFFFFFFFFFFFF AND MUL OR SWAP1 SSTORE POP DUP2 PUSH20 0xFFFFFFFFFFFFFFFFFFFFFFFFFFFFFFFFFFFFFFFF AND DUP2 PUSH20 0xFFFFFFFFFFFFFFFFFFFFFFFFFFFFFFFFFFFFFFFF AND PUSH32 0x8BE0079C531659141344CD1FD0A4F28419497F9722A3DAAFE3B4186F6B6457E0 PUSH1 0x40 MLOAD PUSH1 0x40 MLOAD DUP1 SWAP2 SUB SWAP1 LOG3 POP POP JUMP JUMPDEST PUSH1 0x0 DUP1 PUSH1 0x0 JUMPDEST PUSH1 0x14 DUP2 LT ISZERO PUSH2 0x482 JUMPI PUSH1 0x8 PUSH1 0xC DUP3 PUSH2 0x40E SWAP2 SWAP1 PUSH2 0xD10 JUMP JUMPDEST PUSH2 0x418 SWAP2 SWAP1 PUSH2 0xD44 JUMP JUMPDEST PUSH1 0xFF PUSH1 0xF8 SHL DUP7 DUP4 DUP8 PUSH2 0x42A SWAP2 SWAP1 PUSH2 0xD10 JUMP JUMPDEST DUP2 MLOAD DUP2 LT PUSH2 0x43B JUMPI PUSH2 0x43A PUSH2 0xD86 JUMP JUMPDEST JUMPDEST PUSH1 0x20 ADD ADD MLOAD PUSH1 0xF8 SHR PUSH1 0xF8 SHL AND PUSH31 0xFFFFFFFFFFFFFFFFFFFFFFFFFFFFFFFFFFFFFFFFFFFFFFFFFFFFFFFFFFFFFF NOT AND SWAP1 SHR DUP3 OR SWAP2 POP DUP1 DUP1 PUSH2 0x47A SWAP1 PUSH2 0xDB5 JUMP JUMPDEST SWAP2 POP POP PUSH2 0x3F6 JUMP JUMPDEST POP DUP1 PUSH1 0x0 SHR SWAP2 POP POP SWAP3 SWAP2 POP POP JUMP JUMPDEST PUSH1 0x0 CALLER SWAP1 POP SWAP1 JUMP JUMPDEST PUSH1 0x0 PUSH20 0xFFFFFFFFFFFFFFFFFFFFFFFFFFFFFFFFFFFFFFFF DUP3 AND SWAP1 POP SWAP2 SWAP1 POP JUMP JUMPDEST PUSH1 0x0 PUSH2 0x4C3 DUP3 PUSH2 0x498 JUMP JUMPDEST SWAP1 POP SWAP2 SWAP1 POP JUMP JUMPDEST PUSH2 0x4D3 DUP2 PUSH2 0x4B8 JUMP JUMPDEST DUP3 MSTORE POP POP JUMP JUMPDEST PUSH1 0x0 PUSH1 0x20 DUP3 ADD SWAP1 POP PUSH2 0x4EE PUSH1 0x0 DUP4 ADD DUP5 PUSH2 0x4CA JUMP JUMPDEST SWAP3 SWAP2 POP POP JUMP JUMPDEST PUSH1 0x0 PUSH1 0x40 MLOAD SWAP1 POP SWAP1 JUMP JUMPDEST PUSH1 0x0 DUP1 REVERT JUMPDEST PUSH1 0x0 DUP1 REVERT JUMPDEST PUSH1 0x0 DUP1 REVERT JUMPDEST PUSH1 0x0 DUP1 REVERT JUMPDEST PUSH1 0x0 PUSH1 0x1F NOT PUSH1 0x1F DUP4 ADD AND SWAP1 POP SWAP2 SWAP1 POP JUMP JUMPDEST PUSH32 0x4E487B7100000000000000000000000000000000000000000000000000000000 PUSH1 0x0 MSTORE PUSH1 0x41 PUSH1 0x4 MSTORE PUSH1 0x24 PUSH1 0x0 REVERT JUMPDEST PUSH2 0x55B DUP3 PUSH2 0x512 JUMP JUMPDEST DUP2 ADD DUP2 DUP2 LT PUSH8 0xFFFFFFFFFFFFFFFF DUP3 GT OR ISZERO PUSH2 0x57A JUMPI PUSH2 0x579 PUSH2 0x523 JUMP JUMPDEST JUMPDEST DUP1 PUSH1 0x40 MSTORE POP POP POP JUMP JUMPDEST PUSH1 0x0 PUSH2 0x58D PUSH2 0x4F4 JUMP JUMPDEST SWAP1 POP PUSH2 0x599 DUP3 DUP3 PUSH2 0x552 JUMP JUMPDEST SWAP2 SWAP1 POP JUMP JUMPDEST PUSH1 0x0 PUSH8 0xFFFFFFFFFFFFFFFF DUP3 GT ISZERO PUSH2 0x5B9 JUMPI PUSH2 0x5B8 PUSH2 0x523 JUMP JUMPDEST JUMPDEST PUSH2 0x5C2 DUP3 PUSH2 0x512 JUMP JUMPDEST SWAP1 POP PUSH1 0x20 DUP2 ADD SWAP1 POP SWAP2 SWAP1 POP JUMP JUMPDEST DUP3 DUP2 DUP4 CALLDATACOPY PUSH1 0x0 DUP4 DUP4 ADD MSTORE POP POP POP JUMP JUMPDEST PUSH1 0x0 PUSH2 0x5F1 PUSH2 0x5EC DUP5 PUSH2 0x59E JUMP JUMPDEST PUSH2 0x583 JUMP JUMPDEST SWAP1 POP DUP3 DUP2 MSTORE PUSH1 0x20 DUP2 ADD DUP5 DUP5 DUP5 ADD GT ISZERO PUSH2 0x60D JUMPI PUSH2 0x60C PUSH2 0x50D JUMP JUMPDEST JUMPDEST PUSH2 0x618 DUP5 DUP3 DUP6 PUSH2 0x5CF JUMP JUMPDEST POP SWAP4 SWAP3 POP POP POP JUMP JUMPDEST PUSH1 0x0 DUP3 PUSH1 0x1F DUP4 ADD SLT PUSH2 0x635 JUMPI PUSH2 0x634 PUSH2 0x508 JUMP JUMPDEST JUMPDEST DUP2 CALLDATALOAD PUSH2 0x645 DUP5 DUP3 PUSH1 0x20 DUP7 ADD PUSH2 0x5DE JUMP JUMPDEST SWAP2 POP POP SWAP3 SWAP2 POP POP JUMP JUMPDEST PUSH1 0x0 PUSH1 0xFF DUP3 AND SWAP1 POP SWAP2 SWAP1 POP JUMP JUMPDEST PUSH2 0x664 DUP2 PUSH2 0x64E JUMP JUMPDEST DUP2 EQ PUSH2 0x66F JUMPI PUSH1 0x0 DUP1 REVERT JUMPDEST POP JUMP JUMPDEST PUSH1 0x0 DUP2 CALLDATALOAD SWAP1 POP PUSH2 0x681 DUP2 PUSH2 0x65B JUMP JUMPDEST SWAP3 SWAP2 POP POP JUMP JUMPDEST PUSH1 0x0 DUP2 SWAP1 POP SWAP2 SWAP1 POP JUMP JUMPDEST PUSH2 0x69A DUP2 PUSH2 0x687 JUMP JUMPDEST DUP2 EQ PUSH2 0x6A5 JUMPI PUSH1 0x0 DUP1 REVERT JUMPDEST POP JUMP JUMPDEST PUSH1 0x0 DUP2 CALLDATALOAD SWAP1 POP PUSH2 0x6B7 DUP2 PUSH2 0x691 JUMP JUMPDEST SWAP3 SWAP2 POP POP JUMP JUMPDEST PUSH1 0x0 PUSH8 0xFFFFFFFFFFFFFFFF DUP3 GT ISZERO PUSH2 0x6D8 JUMPI PUSH2 0x6D7 PUSH2 0x523 JUMP JUMPDEST JUMPDEST PUSH2 0x6E1 DUP3 PUSH2 0x512 JUMP JUMPDEST SWAP1 POP PUSH1 0x20 DUP2 ADD SWAP1 POP SWAP2 SWAP1 POP JUMP JUMPDEST PUSH1 0x0 PUSH2 0x701 PUSH2 0x6FC DUP5 PUSH2 0x6BD JUMP JUMPDEST PUSH2 0x583 JUMP JUMPDEST SWAP1 POP DUP3 DUP2 MSTORE PUSH1 0x20 DUP2 ADD DUP5 DUP5 DUP5 ADD GT ISZERO PUSH2 0x71D JUMPI PUSH2 0x71C PUSH2 0x50D JUMP JUMPDEST JUMPDEST PUSH2 0x728 DUP5 DUP3 DUP6 PUSH2 0x5CF JUMP JUMPDEST POP SWAP4 SWAP3 POP POP POP JUMP JUMPDEST PUSH1 0x0 DUP3 PUSH1 0x1F DUP4 ADD SLT PUSH2 0x745 JUMPI PUSH2 0x744 PUSH2 0x508 JUMP JUMPDEST JUMPDEST DUP2 CALLDATALOAD PUSH2 0x755 DUP5 DUP3 PUSH1 0x20 DUP7 ADD PUSH2 0x6EE JUMP JUMPDEST SWAP2 POP POP SWAP3 SWAP2 POP POP JUMP JUMPDEST PUSH2 0x767 DUP2 PUSH2 0x4B8 JUMP JUMPDEST DUP2 EQ PUSH2 0x772 JUMPI PUSH1 0x0 DUP1 REVERT JUMPDEST POP JUMP JUMPDEST PUSH1 0x0 DUP2 CALLDATALOAD SWAP1 POP PUSH2 0x784 DUP2 PUSH2 0x75E JUMP JUMPDEST SWAP3 SWAP2 POP POP JUMP JUMPDEST PUSH1 0x0 DUP1 PUSH1 0x0 DUP1 PUSH1 0x0 DUP1 PUSH1 0xC0 DUP8 DUP10 SUB SLT ISZERO PUSH2 0x7A7 JUMPI PUSH2 0x7A6 PUSH2 0x4FE JUMP JUMPDEST JUMPDEST PUSH1 0x0 DUP8 ADD CALLDATALOAD PUSH8 0xFFFFFFFFFFFFFFFF DUP2 GT ISZERO PUSH2 0x7C5 JUMPI PUSH2 0x7C4 PUSH2 0x503 JUMP JUMPDEST JUMPDEST PUSH2 0x7D1 DUP10 DUP3 DUP11 ADD PUSH2 0x620 JUMP JUMPDEST SWAP7 POP POP PUSH1 0x20 PUSH2 0x7E2 DUP10 DUP3 DUP11 ADD PUSH2 0x672 JUMP JUMPDEST SWAP6 POP POP PUSH1 0x40 PUSH2 0x7F3 DUP10 DUP3 DUP11 ADD PUSH2 0x6A8 JUMP JUMPDEST SWAP5 POP POP PUSH1 0x60 PUSH2 0x804 DUP10 DUP3 DUP11 ADD PUSH2 0x6A8 JUMP JUMPDEST SWAP4 POP POP PUSH1 0x80 DUP8 ADD CALLDATALOAD PUSH8 0xFFFFFFFFFFFFFFFF DUP2 GT ISZERO PUSH2 0x825 JUMPI PUSH2 0x824 PUSH2 0x503 JUMP JUMPDEST JUMPDEST PUSH2 0x831 DUP10 DUP3 DUP11 ADD PUSH2 0x730 JUMP JUMPDEST SWAP3 POP POP PUSH1 0xA0 PUSH2 0x842 DUP10 DUP3 DUP11 ADD PUSH2 0x775 JUMP JUMPDEST SWAP2 POP POP SWAP3 SWAP6 POP SWAP3 SWAP6 POP SWAP3 SWAP6 JUMP JUMPDEST PUSH1 0x0 PUSH1 0x20 DUP3 DUP5 SUB SLT ISZERO PUSH2 0x865 JUMPI PUSH2 0x864 PUSH2 0x4FE JUMP JUMPDEST JUMPDEST PUSH1 0x0 PUSH2 0x873 DUP5 DUP3 DUP6 ADD PUSH2 0x775 JUMP JUMPDEST SWAP2 POP POP SWAP3 SWAP2 POP POP JUMP JUMPDEST PUSH2 0x885 DUP2 PUSH2 0x687 JUMP JUMPDEST DUP3 MSTORE POP POP JUMP JUMPDEST PUSH2 0x894 DUP2 PUSH2 0x64E JUMP JUMPDEST DUP3 MSTORE POP POP JUMP JUMPDEST PUSH1 0x0 PUSH1 0x80 DUP3 ADD SWAP1 POP PUSH2 0x8AF PUSH1 0x0 DUP4 ADD DUP8 PUSH2 0x87C JUMP JUMPDEST PUSH2 0x8BC PUSH1 0x20 DUP4 ADD DUP7 PUSH2 0x88B JUMP JUMPDEST PUSH2 0x8C9 PUSH1 0x40 DUP4 ADD DUP6 PUSH2 0x87C JUMP JUMPDEST PUSH2 0x8D6 PUSH1 0x60 DUP4 ADD DUP5 PUSH2 0x87C JUMP JUMPDEST SWAP6 SWAP5 POP POP POP POP POP JUMP JUMPDEST PUSH1 0x0 DUP2 MLOAD SWAP1 POP SWAP2 SWAP1 POP JUMP JUMPDEST PUSH32 0x4E487B7100000000000000000000000000000000000000000000000000000000 PUSH1 0x0 MSTORE PUSH1 0x22 PUSH1 0x4 MSTORE PUSH1 0x24 PUSH1 0x0 REVERT JUMPDEST PUSH1 0x0 PUSH1 0x2 DUP3 DIV SWAP1 POP PUSH1 0x1 DUP3 AND DUP1 PUSH2 0x931 JUMPI PUSH1 0x7F DUP3 AND SWAP2 POP JUMPDEST PUSH1 0x20 DUP3 LT DUP2 SUB PUSH2 0x944 JUMPI PUSH2 0x943 PUSH2 0x8EA JUMP JUMPDEST JUMPDEST POP SWAP2 SWAP1 POP JUMP JUMPDEST PUSH1 0x0 DUP2 SWAP1 POP DUP2 PUSH1 0x0 MSTORE PUSH1 0x20 PUSH1 0x0 KECCAK256 SWAP1 POP SWAP2 SWAP1 POP JUMP JUMPDEST PUSH1 0x0 PUSH1 0x20 PUSH1 0x1F DUP4 ADD DIV SWAP1 POP SWAP2 SWAP1 POP JUMP JUMPDEST PUSH1 0x0 DUP3 DUP3 SHL SWAP1 POP SWAP3 SWAP2 POP POP JUMP JUMPDEST PUSH1 0x0 PUSH1 0x8 DUP4 MUL PUSH2 0x9AC PUSH32 0xFFFFFFFFFFFFFFFFFFFFFFFFFFFFFFFFFFFFFFFFFFFFFFFFFFFFFFFFFFFFFFFF DUP3 PUSH2 0x96F JUMP JUMPDEST PUSH2 0x9B6 DUP7 DUP4 PUSH2 0x96F JUMP JUMPDEST SWAP6 POP DUP1 NOT DUP5 AND SWAP4 POP DUP1 DUP7 AND DUP5 OR SWAP3 POP POP POP SWAP4 SWAP3 POP POP POP JUMP JUMPDEST PUSH1 0x0 DUP2 SWAP1 POP SWAP2 SWAP1 POP JUMP JUMPDEST PUSH1 0x0 DUP2 SWAP1 POP SWAP2 SWAP1 POP JUMP JUMPDEST PUSH1 0x0 PUSH2 0x9FD PUSH2 0x9F8 PUSH2 0x9F3 DUP5 PUSH2 0x9CE JUMP JUMPDEST PUSH2 0x9D8 JUMP JUMPDEST PUSH2 0x9CE JUMP JUMPDEST SWAP1 POP SWAP2 SWAP1 POP JUMP JUMPDEST PUSH1 0x0 DUP2 SWAP1 POP SWAP2 SWAP1 POP JUMP JUMPDEST PUSH2 0xA17 DUP4 PUSH2 0x9E2 JUMP JUMPDEST PUSH2 0xA2B PUSH2 0xA23 DUP3 PUSH2 0xA04 JUMP JUMPDEST DUP5 DUP5 SLOAD PUSH2 0x97C JUMP JUMPDEST DUP3 SSTORE POP POP POP POP JUMP JUMPDEST PUSH1 0x0 SWAP1 JUMP JUMPDEST PUSH2 0xA40 PUSH2 0xA33 JUMP JUMPDEST PUSH2 0xA4B DUP2 DUP5 DUP5 PUSH2 0xA0E JUMP JUMPDEST POP POP POP JUMP JUMPDEST JUMPDEST DUP2 DUP2 LT ISZERO PUSH2 0xA6F JUMPI PUSH2 0xA64 PUSH1 0x0 DUP3 PUSH2 0xA38 JUMP JUMPDEST PUSH1 0x1 DUP2 ADD SWAP1 POP PUSH2 0xA51 JUMP JUMPDEST POP POP JUMP JUMPDEST PUSH1 0x1F DUP3 GT ISZERO PUSH2 0xAB4 JUMPI PUSH2 0xA85 DUP2 PUSH2 0x94A JUMP JUMPDEST PUSH2 0xA8E DUP5 PUSH2 0x95F JUMP JUMPDEST DUP2 ADD PUSH1 0x20 DUP6 LT ISZERO PUSH2 0xA9D JUMPI DUP2 SWAP1 POP JUMPDEST PUSH2 0xAB1 PUSH2 0xAA9 DUP6 PUSH2 0x95F JUMP JUMPDEST DUP4 ADD DUP3 PUSH2 0xA50 JUMP JUMPDEST POP POP JUMPDEST POP POP POP JUMP JUMPDEST PUSH1 0x0 DUP3 DUP3 SHR SWAP1 POP SWAP3 SWAP2 POP POP JUMP JUMPDEST PUSH1 0x0 PUSH2 0xAD7 PUSH1 0x0 NOT DUP5 PUSH1 0x8 MUL PUSH2 0xAB9 JUMP JUMPDEST NOT DUP1 DUP4 AND SWAP2 POP POP SWAP3 SWAP2 POP POP JUMP JUMPDEST PUSH1 0x0 PUSH2 0xAF0 DUP4 DUP4 PUSH2 0xAC6 JUMP JUMPDEST SWAP2 POP DUP3 PUSH1 0x2 MUL DUP3 OR SWAP1 POP SWAP3 SWAP2 POP POP JUMP JUMPDEST PUSH2 0xB09 DUP3 PUSH2 0x8DF JUMP JUMPDEST PUSH8 0xFFFFFFFFFFFFFFFF DUP2 GT ISZERO PUSH2 0xB22 JUMPI PUSH2 0xB21 PUSH2 0x523 JUMP JUMPDEST JUMPDEST PUSH2 0xB2C DUP3 SLOAD PUSH2 0x919 JUMP JUMPDEST PUSH2 0xB37 DUP3 DUP3 DUP6 PUSH2 0xA73 JUMP JUMPDEST PUSH1 0x0 PUSH1 0x20 SWAP1 POP PUSH1 0x1F DUP4 GT PUSH1 0x1 DUP2 EQ PUSH2 0xB6A JUMPI PUSH1 0x0 DUP5 ISZERO PUSH2 0xB58 JUMPI DUP3 DUP8 ADD MLOAD SWAP1 POP JUMPDEST PUSH2 0xB62 DUP6 DUP3 PUSH2 0xAE4 JUMP JUMPDEST DUP7 SSTORE POP PUSH2 0xBCA JUMP JUMPDEST PUSH1 0x1F NOT DUP5 AND PUSH2 0xB78 DUP7 PUSH2 0x94A JUMP JUMPDEST PUSH1 0x0 JUMPDEST DUP3 DUP2 LT ISZERO PUSH2 0xBA0 JUMPI DUP5 DUP10 ADD MLOAD DUP3 SSTORE PUSH1 0x1 DUP3 ADD SWAP2 POP PUSH1 0x20 DUP6 ADD SWAP5 POP PUSH1 0x20 DUP2 ADD SWAP1 POP PUSH2 0xB7B JUMP JUMPDEST DUP7 DUP4 LT ISZERO PUSH2 0xBBD JUMPI DUP5 DUP10 ADD MLOAD PUSH2 0xBB9 PUSH1 0x1F DUP10 AND DUP3 PUSH2 0xAC6 JUMP JUMPDEST DUP4 SSTORE POP JUMPDEST PUSH1 0x1 PUSH1 0x2 DUP9 MUL ADD DUP9 SSTORE POP POP POP JUMPDEST POP POP POP POP POP POP JUMP JUMPDEST PUSH1 0x0 DUP3 DUP3 MSTORE PUSH1 0x20 DUP3 ADD SWAP1 POP SWAP3 SWAP2 POP POP JUMP JUMPDEST PUSH32 0x4F776E61626C653A206E6577206F776E657220697320746865207A65726F2061 PUSH1 0x0 DUP3 ADD MSTORE PUSH32 0x6464726573730000000000000000000000000000000000000000000000000000 PUSH1 0x20 DUP3 ADD MSTORE POP JUMP JUMPDEST PUSH1 0x0 PUSH2 0xC3F PUSH1 0x26 DUP4 PUSH2 0xBD2 JUMP JUMPDEST SWAP2 POP PUSH2 0xC4A DUP3 PUSH2 0xBE3 JUMP JUMPDEST PUSH1 0x40 DUP3 ADD SWAP1 POP SWAP2 SWAP1 POP JUMP JUMPDEST PUSH1 0x0 PUSH1 0x20 DUP3 ADD SWAP1 POP DUP2 DUP2 SUB PUSH1 0x0 DUP4 ADD MSTORE PUSH2 0xC6E DUP2 PUSH2 0xC32 JUMP JUMPDEST SWAP1 POP SWAP2 SWAP1 POP JUMP JUMPDEST PUSH32 0x4F776E61626C653A2063616C6C6572206973206E6F7420746865206F776E6572 PUSH1 0x0 DUP3 ADD MSTORE POP JUMP JUMPDEST PUSH1 0x0 PUSH2 0xCAB PUSH1 0x20 DUP4 PUSH2 0xBD2 JUMP JUMPDEST SWAP2 POP PUSH2 0xCB6 DUP3 PUSH2 0xC75 JUMP JUMPDEST PUSH1 0x20 DUP3 ADD SWAP1 POP SWAP2 SWAP1 POP JUMP JUMPDEST PUSH1 0x0 PUSH1 0x20 DUP3 ADD SWAP1 POP DUP2 DUP2 SUB PUSH1 0x0 DUP4 ADD MSTORE PUSH2 0xCDA DUP2 PUSH2 0xC9E JUMP JUMPDEST SWAP1 POP SWAP2 SWAP1 POP JUMP JUMPDEST PUSH32 0x4E487B7100000000000000000000000000000000000000000000000000000000 PUSH1 0x0 MSTORE PUSH1 0x11 PUSH1 0x4 MSTORE PUSH1 0x24 PUSH1 0x0 REVERT JUMPDEST PUSH1 0x0 PUSH2 0xD1B DUP3 PUSH2 0x9CE JUMP JUMPDEST SWAP2 POP PUSH2 0xD26 DUP4 PUSH2 0x9CE JUMP JUMPDEST SWAP3 POP DUP3 DUP3 ADD SWAP1 POP DUP1 DUP3 GT ISZERO PUSH2 0xD3E JUMPI PUSH2 0xD3D PUSH2 0xCE1 JUMP JUMPDEST JUMPDEST SWAP3 SWAP2 POP POP JUMP JUMPDEST PUSH1 0x0 PUSH2 0xD4F DUP3 PUSH2 0x9CE JUMP JUMPDEST SWAP2 POP PUSH2 0xD5A DUP4 PUSH2 0x9CE JUMP JUMPDEST SWAP3 POP DUP3 DUP3 MUL PUSH2 0xD68 DUP2 PUSH2 0x9CE JUMP JUMPDEST SWAP2 POP DUP3 DUP3 DIV DUP5 EQ DUP4 ISZERO OR PUSH2 0xD7F JUMPI PUSH2 0xD7E PUSH2 0xCE1 JUMP JUMPDEST JUMPDEST POP SWAP3 SWAP2 POP POP JUMP JUMPDEST PUSH32 0x4E487B7100000000000000000000000000000000000000000000000000000000 PUSH1 0x0 MSTORE PUSH1 0x32 PUSH1 0x4 MSTORE PUSH1 0x24 PUSH1 0x0 REVERT JUMPDEST PUSH1 0x0 PUSH2 0xDC0 DUP3 PUSH2 0x9CE JUMP JUMPDEST SWAP2 POP PUSH32 0xFFFFFFFFFFFFFFFFFFFFFFFFFFFFFFFFFFFFFFFFFFFFFFFFFFFFFFFFFFFFFFFF DUP3 SUB PUSH2 0xDF2 JUMPI PUSH2 0xDF1 PUSH2 0xCE1 JUMP JUMPDEST JUMPDEST PUSH1 0x1 DUP3 ADD SWAP1 POP SWAP2 SWAP1 POP JUMP INVALID LOG2 PUSH5 0x6970667358 0x22 SLT KECCAK256 MSIZE 0xE5 NUMBER SWAP13 STATICCALL PUSH19 0x869F1F65FD59727704B3C68DE9D9F3B2F72BD3 0xED 0xB8 0xED STOP PUSH30 0xDD0364736F6C634300081100330000000000000000000000000000000000 "},"methodIdentifiers":{"approveKYC(bytes,uint8,bytes32,bytes32,string,address)":"ae474b53","owner()":"8da5cb5b","renounceOwnership()":"715018a6","transferOwnership(address)":"f2fde38b"}}}}}